:10080000758910120917D2B3C2B4C2B5E4F590D2FB
:1008100081C2817F64FE12091BD2B4C2B5759003F8
:10082000120913D2B4D2B5759004120913C2B4D20E
:10083000B5E4F590D281C2817F64FE12091BC2B378
:100840007FE87E0312091BD2B2C2B6C2B785A008E8
:10085000120917D2B6C2B785A009120917D2B6D2AB
:10086000B785A00A120917C2B6D2B785A00B120924
:1008700017C2B3C280E50970047F0180027F00E5E2
:100880000870047E0180027E00EE5FFFE50AB40C72
:10089000047E0180027E00EE5FFFE50B70047E01A6
:1008A00080027E00EE5F6006D2B1C2B08004C2B1A9
:0E08B000D2B07FE87E0312091BD28002080638
:08091300D281C2817F647E00E5
:04091B00AB07AA0676
:10091F00E4F58DF58BD28EF582F5837C007D47AFA4
:10092F0003AE021208BEC3E5829FE5839E5008C244
:07093F008F308FFDA380E45F
:01094600228E
:03000000020947AB
:0C094700787FE4F6D8FD75810B020800F3
:1008BE00BC000BBE0029EF8DF084FFADF022E4CC1E
:1008CE00F875F008EF2FFFEE33FEEC33FCEE9DECE7
:1008DE00984005FCEE9DFE0FD5F0E9E4CEFD22ED2D
:1008EE00F8F5F0EE8420D21CFEADF075F008EF2F77
:1008FE00FFED33FD4007985006D5F0F222C398FD68
:05090E000FD5F0EA2204
:00000001FF
