:10080000758910120901D2B3C2B4C2B5E4F5907F64
:1008100064FE3105D2B4C2B5759003120901D2B499
:10082000D2B57590043101C2B4D2B5E4F5907F64BD
:10083000FE3105C2B37FE87E033105D2B2C2B6C233
:10084000B785A0083101D2B6C2B785A0093101D25F
:10085000B6D2B785A00A3101C2B6D2B785A00B3196
:1008600001C2B3C280E50970047F0180027F00E508
:1008700008B40C047E0180027E00EE5FFFE50A7082
:10088000047E0180027E00EE5FFFE50B70047E01B6
:1008900080027E00EE5F6006D2B1C2B08004C2B1B9
:0C08A000D2B07FE87E033105D280010653
:040901007F647E0091
:04090500AB07AA068C
:10090900E4F58DF58BD28EF582F5837C007D47AFBA
:1009190003AE0211ACC3E5829FE5839E5008C28FE6
:06092900308FFDA380E504
:01092F0022A5
:03000000020930C2
:0C093000787FE4F6D8FD75810B0208000A
:1008AC00BC000BBE0029EF8DF084FFADF022E4CC30
:1008BC00F875F008EF2FFFEE33FEEC33FCEE9DECF9
:1008CC00984005FCEE9DFE0FD5F0E9E4CEFD22ED3F
:1008DC00F8F5F0EE8420D21CFEADF075F008EF2F89
:1008EC00FFED33FD4007985006D5F0F222C398FD7A
:0508FC000FD5F0EA2217
:00000001FF
